{
  "_format": "hh-sol-artifact-1",
  "contractName": "ValentineNFT",
  "sourceName": "contracts/ValentineNFT.sol",
  "abi": [
    {
      "inputs": [],
      "stateMutability": "nonpayable",
      "type": "constructor"
    },
    {
      "inputs": [
        {
          "internalType": "address",
          "name": "sender",
          "type": "address"
        },
        {
          "internalType": "uint256",
          "name": "tokenId",
          "type": "uint256"
        },
        {
          "internalType": "address",
          "name": "owner",
          "type": "address"
        }
      ],
      "name": "ERC721IncorrectOwner",
      "type": "error"
    },
    {
      "inputs": [
        {
          "internalType": "address",
          "name": "operator",
          "type": "address"
        },
        {
          "internalType": "uint256",
          "name": "tokenId",
          "type": "uint256"
        }
      ],
      "name": "ERC721InsufficientApproval",
      "type": "error"
    },
    {
      "inputs": [
        {
          "internalType": "address",
          "name": "approver",
          "type": "address"
        }
      ],
      "name": "ERC721InvalidApprover",
      "type": "error"
    },
    {
      "inputs": [
        {
          "internalType": "address",
          "name": "operator",
          "type": "address"
        }
      ],
      "name": "ERC721InvalidOperator",
      "type": "error"
    },
    {
      "inputs": [
        {
          "internalType": "address",
          "name": "owner",
          "type": "address"
        }
      ],
      "name": "ERC721InvalidOwner",
      "type": "error"
    },
    {
      "inputs": [
        {
          "internalType": "address",
          "name": "receiver",
          "type": "address"
        }
      ],
      "name": "ERC721InvalidReceiver",
      "type": "error"
    },
    {
      "inputs": [
        {
          "internalType": "address",
          "name": "sender",
          "type": "address"
        }
      ],
      "name": "ERC721InvalidSender",
      "type": "error"
    },
    {
      "inputs": [
        {
          "internalType": "uint256",
          "name": "tokenId",
          "type": "uint256"
        }
      ],
      "name": "ERC721NonexistentToken",
      "type": "error"
    },
    {
      "anonymous": false,
      "inputs": [
        {
          "indexed": true,
          "internalType": "address",
          "name": "owner",
          "type": "address"
        },
        {
          "indexed": true,
          "internalType": "address",
          "name": "approved",
          "type": "address"
        },
        {
          "indexed": true,
          "internalType": "uint256",
          "name": "tokenId",
          "type": "uint256"
        }
      ],
      "name": "Approval",
      "type": "event"
    },
    {
      "anonymous": false,
      "inputs": [
        {
          "indexed": true,
          "internalType": "address",
          "name": "owner",
          "type": "address"
        },
        {
          "indexed": true,
          "internalType": "address",
          "name": "operator",
          "type": "address"
        },
        {
          "indexed": false,
          "internalType": "bool",
          "name": "approved",
          "type": "bool"
        }
      ],
      "name": "ApprovalForAll",
      "type": "event"
    },
    {
      "anonymous": false,
      "inputs": [
        {
          "indexed": false,
          "internalType": "uint256",
          "name": "_fromTokenId",
          "type": "uint256"
        },
        {
          "indexed": false,
          "internalType": "uint256",
          "name": "_toTokenId",
          "type": "uint256"
        }
      ],
      "name": "BatchMetadataUpdate",
      "type": "event"
    },
    {
      "anonymous": false,
      "inputs": [
        {
          "indexed": false,
          "internalType": "uint256",
          "name": "_tokenId",
          "type": "uint256"
        }
      ],
      "name": "MetadataUpdate",
      "type": "event"
    },
    {
      "anonymous": false,
      "inputs": [
        {
          "indexed": true,
          "internalType": "address",
          "name": "from",
          "type": "address"
        },
        {
          "indexed": true,
          "internalType": "address",
          "name": "to",
          "type": "address"
        },
        {
          "indexed": true,
          "internalType": "uint256",
          "name": "tokenId",
          "type": "uint256"
        }
      ],
      "name": "Transfer",
      "type": "event"
    },
    {
      "inputs": [
        {
          "internalType": "address",
          "name": "to",
          "type": "address"
        },
        {
          "internalType": "uint256",
          "name": "tokenId",
          "type": "uint256"
        }
      ],
      "name": "approve",
      "outputs": [],
      "stateMutability": "nonpayable",
      "type": "function"
    },
    {
      "inputs": [
        {
          "internalType": "address",
          "name": "owner",
          "type": "address"
        }
      ],
      "name": "balanceOf",
      "outputs": [
        {
          "internalType": "uint256",
          "name": "",
          "type": "uint256"
        }
      ],
      "stateMutability": "view",
      "type": "function"
    },
    {
      "inputs": [
        {
          "internalType": "uint256",
          "name": "tokenId",
          "type": "uint256"
        }
      ],
      "name": "getApproved",
      "outputs": [
        {
          "internalType": "address",
          "name": "",
          "type": "address"
        }
      ],
      "stateMutability": "view",
      "type": "function"
    },
    {
      "inputs": [
        {
          "internalType": "address",
          "name": "owner",
          "type": "address"
        },
        {
          "internalType": "address",
          "name": "operator",
          "type": "address"
        }
      ],
      "name": "isApprovedForAll",
      "outputs": [
        {
          "internalType": "bool",
          "name": "",
          "type": "bool"
        }
      ],
      "stateMutability": "view",
      "type": "function"
    },
    {
      "inputs": [
        {
          "internalType": "address",
          "name": "recipient",
          "type": "address"
        },
        {
          "internalType": "string",
          "name": "tokenURI",
          "type": "string"
        }
      ],
      "name": "mintNFT",
      "outputs": [
        {
          "internalType": "uint256",
          "name": "",
          "type": "uint256"
        }
      ],
      "stateMutability": "nonpayable",
      "type": "function"
    },
    {
      "inputs": [],
      "name": "name",
      "outputs": [
        {
          "internalType": "string",
          "name": "",
          "type": "string"
        }
      ],
      "stateMutability": "view",
      "type": "function"
    },
    {
      "inputs": [
        {
          "internalType": "uint256",
          "name": "tokenId",
          "type": "uint256"
        }
      ],
      "name": "ownerOf",
      "outputs": [
        {
          "internalType": "address",
          "name": "",
          "type": "address"
        }
      ],
      "stateMutability": "view",
      "type": "function"
    },
    {
      "inputs": [
        {
          "internalType": "address",
          "name": "from",
          "type": "address"
        },
        {
          "internalType": "address",
          "name": "to",
          "type": "address"
        },
        {
          "internalType": "uint256",
          "name": "tokenId",
          "type": "uint256"
        }
      ],
      "name": "safeTransferFrom",
      "outputs": [],
      "stateMutability": "nonpayable",
      "type": "function"
    },
    {
      "inputs": [
        {
          "internalType": "address",
          "name": "from",
          "type": "address"
        },
        {
          "internalType": "address",
          "name": "to",
          "type": "address"
        },
        {
          "internalType": "uint256",
          "name": "tokenId",
          "type": "uint256"
        },
        {
          "internalType": "bytes",
          "name": "data",
          "type": "bytes"
        }
      ],
      "name": "safeTransferFrom",
      "outputs": [],
      "stateMutability": "nonpayable",
      "type": "function"
    },
    {
      "inputs": [
        {
          "internalType": "address",
          "name": "operator",
          "type": "address"
        },
        {
          "internalType": "bool",
          "name": "approved",
          "type": "bool"
        }
      ],
      "name": "setApprovalForAll",
      "outputs": [],
      "stateMutability": "nonpayable",
      "type": "function"
    },
    {
      "inputs": [
        {
          "internalType": "bytes4",
          "name": "interfaceId",
          "type": "bytes4"
        }
      ],
      "name": "supportsInterface",
      "outputs": [
        {
          "internalType": "bool",
          "name": "",
          "type": "bool"
        }
      ],
      "stateMutability": "view",
      "type": "function"
    },
    {
      "inputs": [],
      "name": "symbol",
      "outputs": [
        {
          "internalType": "string",
          "name": "",
          "type": "string"
        }
      ],
      "stateMutability": "view",
      "type": "function"
    },
    {
      "inputs": [
        {
          "internalType": "uint256",
          "name": "tokenId",
          "type": "uint256"
        }
      ],
      "name": "tokenURI",
      "outputs": [
        {
          "internalType": "string",
          "name": "",
          "type": "string"
        }
      ],
      "stateMutability": "view",
      "type": "function"
    },
    {
      "inputs": [
        {
          "internalType": "address",
          "name": "from",
          "type": "address"
        },
        {
          "internalType": "address",
          "name": "to",
          "type": "address"
        },
        {
          "internalType": "uint256",
          "name": "tokenId",
          "type": "uint256"
        }
      ],
      "name": "transferFrom",
      "outputs": [],
      "stateMutability": "nonpayable",
      "type": "function"
    }
  ],
  "bytecode": "0x60806040523480156200001157600080fd5b506040518060400160405280600c81526020017f56616c656e74696e654e465400000000000000000000000000000000000000008152506040518060400160405280600381526020017f464542000000000000000000000000000000000000000000000000000000000081525081600090816200008f919062000324565b508060019081620000a1919062000324565b5050506200040b565b600081519050919050565b7f4e487b7100000000000000000000000000000000000000000000000000000000600052604160045260246000fd5b7f4e487b7100000000000000000000000000000000000000000000000000000000600052602260045260246000fd5b600060028204905060018216806200012c57607f821691505b602082108103620001425762000141620000e4565b5b50919050565b60008190508160005260206000209050919050565b60006020601f8301049050919050565b600082821b905092915050565b600060088302620001ac7fffffffffffffffffffffffffffffffffffffffffffffffffffffffffffffffff826200016d565b620001b886836200016d565b95508019841693508086168417925050509392505050565b6000819050919050565b6000819050919050565b600062000205620001ff620001f984620001d0565b620001da565b620001d0565b9050919050565b6000819050919050565b6200022183620001e4565b6200023962000230826200020c565b8484546200017a565b825550505050565b600090565b6200025062000241565b6200025d81848462000216565b505050565b5b8181101562000285576200027960008262000246565b60018101905062000263565b5050565b601f821115620002d4576200029e8162000148565b620002a9846200015d565b81016020851015620002b9578190505b620002d1620002c8856200015d565b83018262000262565b50505b505050565b600082821c905092915050565b6000620002f960001984600802620002d9565b1980831691505092915050565b6000620003148383620002e6565b9150826002028217905092915050565b6200032f82620000aa565b67ffffffffffffffff8111156200034b576200034a620000b5565b5b62000357825462000113565b6200036482828562000289565b600060209050601f8311600181146200039c576000841562000387578287015190505b62000393858262000306565b86555062000403565b601f198416620003ac8662000148565b60005b82811015620003d657848901518255600182019150602085019450602081019050620003af565b86831015620003f65784890151620003f2601f891682620002e6565b8355505b6001600288020188555050505b505050505050565b6123ad806200041b6000396000f3fe608060405234801561001057600080fd5b50600436106100ea5760003560e01c806370a082311161008c578063b88d4fde11610066578063b88d4fde1461025b578063c87b56dd14610277578063e985e9c5146102a7578063eacabe14146102d7576100ea565b806370a08231146101f157806395d89b4114610221578063a22cb4651461023f576100ea565b8063095ea7b3116100c8578063095ea7b31461016d57806323b872dd1461018957806342842e0e146101a55780636352211e146101c1576100ea565b806301ffc9a7146100ef57806306fdde031461011f578063081812fc1461013d575b600080fd5b61010960048036038101906101049190611819565b610307565b6040516101169190611861565b60405180910390f35b610127610368565b604051610134919061190c565b60405180910390f35b61015760048036038101906101529190611964565b6103fa565b60405161016491906119d2565b60405180910390f35b61018760048036038101906101829190611a19565b610416565b005b6101a3600480360381019061019e9190611a59565b61042c565b005b6101bf60048036038101906101ba9190611a59565b61052e565b005b6101db60048036038101906101d69190611964565b61054e565b6040516101e891906119d2565b60405180910390f35b61020b60048036038101906102069190611aac565b610560565b6040516102189190611ae8565b60405180910390f35b61022961061a565b604051610236919061190c565b60405180910390f35b61025960048036038101906102549190611b2f565b6106ac565b005b61027560048036038101906102709190611ca4565b6106c2565b005b610291600480360381019061028c9190611964565b6106df565b60405161029e919061190c565b60405180910390f35b6102c160048036038101906102bc9190611d27565b6107f2565b6040516102ce9190611861565b60405180910390f35b6102f160048036038101906102ec9190611e08565b610886565b6040516102fe9190611ae8565b60405180910390f35b6000634906490660e01b7bffffffffffffffffffffffffffffffffffffffffffffffffffffffff1916827bffffffffffffffffffffffffffffffffffffffffffffffffffffffff191614806103615750610360826108c5565b5b9050919050565b60606000805461037790611e93565b80601f01602080910402602001604051908101604052809291908181526020018280546103a390611e93565b80156103f05780601f106103c5576101008083540402835291602001916103f0565b820191906000526020600020905b8154815290600101906020018083116103d357829003601f168201915b5050505050905090565b6000610405826109a7565b5061040f82610a2f565b9050919050565b6104288282610423610a6c565b610a74565b5050565b600073ffffffffffffffffffffffffffffffffffffffff168273ffffffffffffffffffffffffffffffffffffffff160361049e5760006040517f64a0ae9200000000000000000000000000000000000000000000000000000000815260040161049591906119d2565b60405180910390fd5b60006104b283836104ad610a6c565b610a86565b90508373ffffffffffffffffffffffffffffffffffffffff168173ffffffffffffffffffffffffffffffffffffffff1614610528578382826040517f64283d7b00000000000000000000000000000000000000000000000000000000815260040161051f93929190611ec4565b60405180910390fd5b50505050565b610549838383604051806020016040528060008152506106c2565b505050565b6000610559826109a7565b9050919050565b60008073ffffffffffffffffffffffffffffffffffffffff168273ffffffffffffffffffffffffffffffffffffffff16036105d35760006040517f89c62b640000000000000000000000000000000000000000000000000000000081526004016105ca91906119d2565b60405180910390fd5b600360008373ffffffffffffffffffffffffffffffffffffffff1673ffffffffffffffffffffffffffffffffffffffff168152602001908152602001600020549050919050565b60606001805461062990611e93565b80601f016020809104026020016040519081016040528092919081815260200182805461065590611e93565b80156106a25780601f10610677576101008083540402835291602001916106a2565b820191906000526020600020905b81548152906001019060200180831161068557829003601f168201915b5050505050905090565b6106be6106b7610a6c565b8383610ca0565b5050565b6106cd84848461042c565b6106d984848484610e0f565b50505050565b60606106ea826109a7565b50600060066000848152602001908152602001600020805461070b90611e93565b80601f016020809104026020016040519081016040528092919081815260200182805461073790611e93565b80156107845780601f1061075957610100808354040283529160200191610784565b820191906000526020600020905b81548152906001019060200180831161076757829003601f168201915b505050505090506000610795610fc6565b905060008151036107aa5781925050506107ed565b6000825111156107df5780826040516020016107c7929190611f37565b604051602081830303815290604052925050506107ed565b6107e884610fdd565b925050505b919050565b6000600560008473ffffffffffffffffffffffffffffffffffffffff1673ffffffffffffffffffffffffffffffffffffffff16815260200190815260200160002060008373ffffffffffffffffffffffffffffffffffffffff1673ffffffffffffffffffffffffffffffffffffffff16815260200190815260200160002060009054906101000a900460ff16905092915050565b600060016007600082825461089b9190611f8a565b925050819055506108ae83600754611046565b6108ba6007548361113f565b600754905092915050565b60007f80ac58cd000000000000000000000000000000000000000000000000000000007bffffffffffffffffffffffffffffffffffffffffffffffffffffffff1916827bffffffffffffffffffffffffffffffffffffffffffffffffffffffff1916148061099057507f5b5e139f000000000000000000000000000000000000000000000000000000007bffffffffffffffffffffffffffffffffffffffffffffffffffffffff1916827bffffffffffffffffffffffffffffffffffffffffffffffffffffffff1916145b806109a0575061099f8261119b565b5b9050919050565b6000806109b383611205565b9050600073ffffffffffffffffffffffffffffffffffffffff168173ffffffffffffffffffffffffffffffffffffffff1603610a2657826040517f7e273289000000000000000000000000000000000000000000000000000000008152600401610a1d9190611ae8565b60405180910390fd5b80915050919050565b60006004600083815260200190815260200160002060009054906101000a900473ffffffffffffffffffffffffffffffffffffffff169050919050565b600033905090565b610a818383836001611242565b505050565b600080610a9284611205565b9050600073ffffffffffffffffffffffffffffffffffffffff168373ffffffffffffffffffffffffffffffffffffffff1614610ad457610ad3818486611407565b5b600073ffffffffffffffffffffffffffffffffffffffff168173ffffffffffffffffffffffffffffffffffffffff1614610b6557610b16600085600080611242565b6001600360008373ffffffffffffffffffffffffffffffffffffffff1673ffffffffffffffffffffffffffffffffffffffff168152602001908152602001600020600082825403925050819055505b600073ffffffffffffffffffffffffffffffffffffffff168573ffffffffffffffffffffffffffffffffffffffff1614610be8576001600360008773ffffffffffffffffffffffffffffffffffffffff1673ffffffffffffffffffffffffffffffffffffffff168152602001908152602001600020600082825401925050819055505b846002600086815260200190815260200160002060006101000a81548173ffffffffffffffffffffffffffffffffffffffff021916908373ffffffffffffffffffffffffffffffffffffffff160217905550838573ffffffffffffffffffffffffffffffffffffffff168273ffffffffffffffffffffffffffffffffffffffff167fddf252ad1be2c89b69c2b068fc378daa952ba7f163c4a11628f55a4df523b3ef60405160405180910390a4809150509392505050565b600073ffffffffffffffffffffffffffffffffffffffff168273ffffffffffffffffffffffffffffffffffffffff1603610d1157816040517f5b08ba18000000000000000000000000000000000000000000000000000000008152600401610d0891906119d2565b60405180910390fd5b80600560008573ffffffffffffffffffffffffffffffffffffffff1673ffffffffffffffffffffffffffffffffffffffff16815260200190815260200160002060008473ffffffffffffffffffffffffffffffffffffffff1673ffffffffffffffffffffffffffffffffffffffff16815260200190815260200160002060006101000a81548160ff0219169083151502179055508173ffffffffffffffffffffffffffffffffffffffff168373ffffffffffffffffffffffffffffffffffffffff167f17307eab39ab6107e8899845ad3d59bd9653f200f220920489ca2b5937696c3183604051610e029190611861565b60405180910390a3505050565b60008373ffffffffffffffffffffffffffffffffffffffff163b1115610fc0578273ffffffffffffffffffffffffffffffffffffffff1663150b7a02610e53610a6c565b8685856040518563ffffffff1660e01b8152600401610e759493929190612013565b6020604051808303816000875af1925050508015610eb157506040513d601f19601f82011682018060405250810190610eae9190612074565b60015b610f35573d8060008114610ee1576040519150601f19603f3d011682016040523d82523d6000602084013e610ee6565b606091505b506000815103610f2d57836040517f64a0ae92000000000000000000000000000000000000000000000000000000008152600401610f2491906119d2565b60405180910390fd5b805181602001fd5b63150b7a0260e01b7bffffffffffffffffffffffffffffffffffffffffffffffffffffffff1916817bffffffffffffffffffffffffffffffffffffffffffffffffffffffff191614610fbe57836040517f64a0ae92000000000000000000000000000000000000000000000000000000008152600401610fb591906119d2565b60405180910390fd5b505b50505050565b606060405180602001604052806000815250905090565b6060610fe8826109a7565b506000610ff3610fc6565b90506000815111611013576040518060200160405280600081525061103e565b8061101d846114cb565b60405160200161102e929190611f37565b6040516020818303038152906040525b915050919050565b600073ffffffffffffffffffffffffffffffffffffffff168273ffffffffffffffffffffffffffffffffffffffff16036110b85760006040517f64a0ae920000000000000000000000000000000000000000000000000000000081526004016110af91906119d2565b60405180910390fd5b60006110c683836000610a86565b9050600073ffffffffffffffffffffffffffffffffffffffff168173ffffffffffffffffffffffffffffffffffffffff161461113a5760006040517f73c6ac6e00000000000000000000000000000000000000000000000000000000815260040161113191906119d2565b60405180910390fd5b505050565b8060066000848152602001908152602001600020908161115f919061224d565b507ff8e1a15aba9398e019f0b49df1a4fde98ee17ae345cb5f6b5e2c27f5033e8ce78260405161118f9190611ae8565b60405180910390a15050565b60007f01ffc9a7000000000000000000000000000000000000000000000000000000007bffffffffffffffffffffffffffffffffffffffffffffffffffffffff1916827bffffffffffffffffffffffffffffffffffffffffffffffffffffffff1916149050919050565b60006002600083815260200190815260200160002060009054906101000a900473ffffffffffffffffffffffffffffffffffffffff169050919050565b808061127b5750600073ffffffffffffffffffffffffffffffffffffffff168273ffffffffffffffffffffffffffffffffffffffff1614155b156113af57600061128b846109a7565b9050600073ffffffffffffffffffffffffffffffffffffffff168373ffffffffffffffffffffffffffffffffffffffff16141580156112f657508273ffffffffffffffffffffffffffffffffffffffff168173ffffffffffffffffffffffffffffffffffffffff1614155b8015611309575061130781846107f2565b155b1561134b57826040517fa9fbf51f00000000000000000000000000000000000000000000000000000000815260040161134291906119d2565b60405180910390fd5b81156113ad57838573ffffffffffffffffffffffffffffffffffffffff168273ffffffffffffffffffffffffffffffffffffffff167f8c5be1e5ebec7d5bd14f71427d1e84f3dd0314c0f7b2291e5b200ac8c7c3b92560405160405180910390a45b505b836004600085815260200190815260200160002060006101000a81548173ffffffffffffffffffffffffffffffffffffffff021916908373ffffffffffffffffffffffffffffffffffffffff16021790555050505050565b611412838383611599565b6114c657600073ffffffffffffffffffffffffffffffffffffffff168373ffffffffffffffffffffffffffffffffffffffff160361148757806040517f7e27328900000000000000000000000000000000000000000000000000000000815260040161147e9190611ae8565b60405180910390fd5b81816040517f177e802f0000000000000000000000000000000000000000000000000000000081526004016114bd92919061231f565b60405180910390fd5b505050565b6060600060016114da8461165a565b01905060008167ffffffffffffffff8111156114f9576114f8611b79565b5b6040519080825280601f01601f19166020018201604052801561152b5781602001600182028036833780820191505090505b509050600082602001820190505b60011561158e578080600190039150507f3031323334353637383961626364656600000000000000000000000000000000600a86061a8153600a858161158257611581612348565b5b04945060008503611539575b819350505050919050565b60008073ffffffffffffffffffffffffffffffffffffffff168373ffffffffffffffffffffffffffffffffffffffff161415801561165157508273ffffffffffffffffffffffffffffffffffffffff168473ffffffffffffffffffffffffffffffffffffffff161480611612575061161184846107f2565b5b8061165057508273ffffffffffffffffffffffffffffffffffffffff1661163883610a2f565b73ffffffffffffffffffffffffffffffffffffffff16145b5b90509392505050565b600080600090507a184f03e93ff9f4daa797ed6e38ed64bf6a1f01000000000000000083106116b8577a184f03e93ff9f4daa797ed6e38ed64bf6a1f01000000000000000083816116ae576116ad612348565b5b0492506040810190505b6d04ee2d6d415b85acef810000000083106116f5576d04ee2d6d415b85acef810000000083816116eb576116ea612348565b5b0492506020810190505b662386f26fc10000831061172457662386f26fc10000838161171a57611719612348565b5b0492506010810190505b6305f5e100831061174d576305f5e100838161174357611742612348565b5b0492506008810190505b612710831061177257612710838161176857611767612348565b5b0492506004810190505b60648310611795576064838161178b5761178a612348565b5b0492506002810190505b600a83106117a4576001810190505b80915050919050565b6000604051905090565b600080fd5b600080fd5b60007fffffffff0000000000000000000000000000000000000000000000000000000082169050919050565b6117f6816117c1565b811461180157600080fd5b50565b600081359050611813816117ed565b92915050565b60006020828403121561182f5761182e6117b7565b5b600061183d84828501611804565b91505092915050565b60008115159050919050565b61185b81611846565b82525050565b60006020820190506118766000830184611852565b92915050565b600081519050919050565b600082825260208201905092915050565b60005b838110156118b657808201518184015260208101905061189b565b60008484015250505050565b6000601f19601f8301169050919050565b60006118de8261187c565b6118e88185611887565b93506118f8818560208601611898565b611901816118c2565b840191505092915050565b6000602082019050818103600083015261192681846118d3565b905092915050565b6000819050919050565b6119418161192e565b811461194c57600080fd5b50565b60008135905061195e81611938565b92915050565b60006020828403121561197a576119796117b7565b5b60006119888482850161194f565b91505092915050565b600073ffffffffffffffffffffffffffffffffffffffff82169050919050565b60006119bc82611991565b9050919050565b6119cc816119b1565b82525050565b60006020820190506119e760008301846119c3565b92915050565b6119f6816119b1565b8114611a0157600080fd5b50565b600081359050611a13816119ed565b92915050565b60008060408385031215611a3057611a2f6117b7565b5b6000611a3e85828601611a04565b9250506020611a4f8582860161194f565b9150509250929050565b600080600060608486031215611a7257611a716117b7565b5b6000611a8086828701611a04565b9350506020611a9186828701611a04565b9250506040611aa28682870161194f565b9150509250925092565b600060208284031215611ac257611ac16117b7565b5b6000611ad084828501611a04565b91505092915050565b611ae28161192e565b82525050565b6000602082019050611afd6000830184611ad9565b92915050565b611b0c81611846565b8114611b1757600080fd5b50565b600081359050611b2981611b03565b92915050565b60008060408385031215611b4657611b456117b7565b5b6000611b5485828601611a04565b9250506020611b6585828601611b1a565b9150509250929050565b600080fd5b600080fd5b7f4e487b7100000000000000000000000000000000000000000000000000000000600052604160045260246000fd5b611bb1826118c2565b810181811067ffffffffffffffff82111715611bd057611bcf611b79565b5b80604052505050565b6000611be36117ad565b9050611bef8282611ba8565b919050565b600067ffffffffffffffff821115611c0f57611c0e611b79565b5b611c18826118c2565b9050602081019050919050565b82818337600083830152505050565b6000611c47611c4284611bf4565b611bd9565b905082815260208101848484011115611c6357611c62611b74565b5b611c6e848285611c25565b509392505050565b600082601f830112611c8b57611c8a611b6f565b5b8135611c9b848260208601611c34565b91505092915050565b60008060008060808587031215611cbe57611cbd6117b7565b5b6000611ccc87828801611a04565b9450506020611cdd87828801611a04565b9350506040611cee8782880161194f565b925050606085013567ffffffffffffffff811115611d0f57611d0e6117bc565b5b611d1b87828801611c76565b91505092959194509250565b60008060408385031215611d3e57611d3d6117b7565b5b6000611d4c85828601611a04565b9250506020611d5d85828601611a04565b9150509250929050565b600067ffffffffffffffff821115611d8257611d81611b79565b5b611d8b826118c2565b9050602081019050919050565b6000611dab611da684611d67565b611bd9565b905082815260208101848484011115611dc757611dc6611b74565b5b611dd2848285611c25565b509392505050565b600082601f830112611def57611dee611b6f565b5b8135611dff848260208601611d98565b91505092915050565b60008060408385031215611e1f57611e1e6117b7565b5b6000611e2d85828601611a04565b925050602083013567ffffffffffffffff811115611e4e57611e4d6117bc565b5b611e5a85828601611dda565b9150509250929050565b7f4e487b7100000000000000000000000000000000000000000000000000000000600052602260045260246000fd5b60006002820490506001821680611eab57607f821691505b602082108103611ebe57611ebd611e64565b5b50919050565b6000606082019050611ed960008301866119c3565b611ee66020830185611ad9565b611ef360408301846119c3565b949350505050565b600081905092915050565b6000611f118261187c565b611f1b8185611efb565b9350611f2b818560208601611898565b80840191505092915050565b6000611f438285611f06565b9150611f4f8284611f06565b91508190509392505050565b7f4e487b7100000000000000000000000000000000000000000000000000000000600052601160045260246000fd5b6000611f958261192e565b9150611fa08361192e565b9250828201905080821115611fb857611fb7611f5b565b5b92915050565b600081519050919050565b600082825260208201905092915050565b6000611fe582611fbe565b611fef8185611fc9565b9350611fff818560208601611898565b612008816118c2565b840191505092915050565b600060808201905061202860008301876119c3565b61203560208301866119c3565b6120426040830185611ad9565b81810360608301526120548184611fda565b905095945050505050565b60008151905061206e816117ed565b92915050565b60006020828403121561208a576120896117b7565b5b60006120988482850161205f565b91505092915050565b60008190508160005260206000209050919050565b60006020601f8301049050919050565b600082821b905092915050565b6000600883026121037fffffffffffffffffffffffffffffffffffffffffffffffffffffffffffffffff826120c6565b61210d86836120c6565b95508019841693508086168417925050509392505050565b6000819050919050565b600061214a6121456121408461192e565b612125565b61192e565b9050919050565b6000819050919050565b6121648361212f565b61217861217082612151565b8484546120d3565b825550505050565b600090565b61218d612180565b61219881848461215b565b505050565b5b818110156121bc576121b1600082612185565b60018101905061219e565b5050565b601f821115612201576121d2816120a1565b6121db846120b6565b810160208510156121ea578190505b6121fe6121f6856120b6565b83018261219d565b50505b505050565b600082821c905092915050565b600061222460001984600802612206565b1980831691505092915050565b600061223d8383612213565b9150826002028217905092915050565b6122568261187c565b67ffffffffffffffff81111561226f5761226e611b79565b5b6122798254611e93565b6122848282856121c0565b600060209050601f8311600181146122b757600084156122a5578287015190505b6122af8582612231565b865550612317565b601f1984166122c5866120a1565b60005b828110156122ed578489015182556001820191506020850194506020810190506122c8565b8683101561230a5784890151612306601f891682612213565b8355505b6001600288020188555050505b505050505050565b600060408201905061233460008301856119c3565b6123416020830184611ad9565b9392505050565b7f4e487b7100000000000000000000000000000000000000000000000000000000600052601260045260246000fdfea2646970667358221220b8ccb8cd3d86ab0c0ac83653702d811fdf72d2fb6fe8b321fffe442bcfd32dea64736f6c63430008140033",
  "linkReferences": {},
  "deployedLinkReferences": {}
}